:020000040000FA
:100000000A128A11E22FFF1B0D2883137F18831712
:100010000008840A0319FF0A080000308A00040857
:10002000840A820700344E34453457342034503427
:1000300041345334533457344F34523444342034DD
:100040003A34203400344134433443344534533457
:1000500053342034443445344E34493445344434E4
:1000600020342134003454347234793420345434FC
:1000700069346D346534733420343A3420340034B8
:1000800053345534433443344534533453340034B7
:1000900041344334433445345334533400346400DE
:1000A0008001840A04060319003404065028F40071
:1000B0006230F3007308F00074080A128A11732189
:1000C00008000A128A11E7200A128A110A128A11FC
:1000D00083250A128A116B28F0007008031D762808
:1000E000831603130D160B178B17080083160313C3
:1000F0000D1208003734383439342F343434353461
:1001000036342A343134323433342D3423343034D9
:100110003D342B347E088A007F0882008A200A1230
:100120008A118000840A04087D0603190034FF0A3E
:100130000319FE0A8E28831203130908FD390238B9
:10014000F00070088900A428831203130908FD3900
:10015000F00070088900AC280800F6008312031331
:100160000908FE39F5007508890076080A128A1117
:100170007D260A128A112130F500F50BBD280800F2
:10018000F900FA017A300A128A1122240A128A111D
:100190007A080319C2287A08F800790884007808D8
:1001A000831380000800FA007A08F8000630031074
:1001B000F80DFF3E031DD72877087807F900790866
:1001C000FB007B0880380A128A11AD2008008316D4
:1001D00003139F141F1501300A128A11A5240A1255
:1001E0008A110A128A11DC210A128A1101300A12BC
:1001F0008A116C20080001300A128A11AD200A12FF
:100200008A1102300A128A11AD200A128A110330B3
:10021000F8009730F700F70B0B29F80B0B29102982
:100220000800FD006230FA007A08F6007D080A1224
:100230008A11C3220A128A11003A031921290130B6
:1002400022290030FB007B08FC007C080800F2003B
:100250007208F1007108831203178D0083160317CB
:100260008C182E290C182E298C130C1483120317AA
:100270000C08F100700884007108831380000800E6
:10028000F500F301F40175088400831300080319D5
:1002900054290130F3070318F40A0030F407013041
:1002A000F2007208F50743297408F1007308F000A2
:1002B000080083120313A1007D08A0002008F700A6
:1002C0007C080A128A11D3200A128A11831203139E
:1002D0000908FE390138A0002008890021080A1207
:1002E0008A117D260800F20072088400831300083A
:1002F00003198B29720884000008F100700884003B
:10030000710880000130F1007108F2070130F1003E
:100310007108F0077429720884000008F100700861
:100320008400710880000800F6000530F4007408AD
:10033000F800F7017808031908007830F400740811
:10034000F000770876070A128A1127210A128A110B
:100350007808F40077087307F500750884007408BE
:10036000831380000130F4007408F7079A29F20023
:10037000831603178C18B8290C18B8297208F100D5
:100380007108831203178D007008F10071088C004A
:1003900000308B1B0130F3008B13831603178C1373
:1003A0000C1555308D00AA308D008C140C1173087B
:1003B000031908008B1708000F3083160313060477
:1003C000F0000030F1007008F2007108F3007208CC
:1003D000F0007008860006080F39F000F10170087F
:1003E000F4007108F5007408F000700886008312AC
:1003F000031306080F39F038F000700886008316E2
:10040000031381130800F600F701740884008313B6
:1004100000080319212A740884000008F5007508F3
:10042000F000770876070A128A11B7210A128A119A
:100430000130F5007508F7070130F5007508F4077D
:10044000052A740884000008F5007508F000770894
:1004500076070A128A11B72108003030831203137D
:10046000AE002E08C1002B08A3002A08A20029080C
:10047000A1002808A0004130AE002E08A4001130D1
:10048000AF002F08A5000A128A11AE230A128A11A2
:10049000831203134108A2000030A3002C08AE0011
:1004A0002E08A4002D08AF002F08A5000A128A11FB
:1004B0005A220800831203132308FF002208840035
:1004C0000A128A1103200A128A11003A031908003D
:1004D0002408A6002608FC002508A7002708FD0020
:1004E0002308FF00220884000A128A1103200A123E
:1004F0008A110A128A1159210A128A1101308312B3
:100500000313A2070318A30A0030A3070130A600B3
:100510002608A5075A2A83120313A400A501A301E4
:10052000233025060319BE2A25300A128A11C0205D
:100530000A128A1123308312031325060319902A05
:100540002508A20024088400220883138000FC01EF
:10055000FC0A2308A2002208FD002A300A128A1190
:1005600059210A128A11013083120313A2002208B2
:10057000A4070130A2002208A307902A24088400BF
:10058000831380010800F900F801F80A79080A12BB
:100590008A1140210A128A11700871040319022B72
:1005A00076080A128A1140210A128A117008710411
:1005B000031DF22A022B7608840000080319F82A8A
:1005C000760884000008F7007908840000087706A0
:1005D000031DF82A0130F7007708F9070130F7000A
:1005E0007708F6077908840083130008031DDB2AC7
:1005F000790884000008031D022B76088400000897
:100600000319F80178080800730872047104700473
:100610000319472BF901F90AF31B1C2B0130F800D1
:100620000310F00DF10DF20DF30DF80B102B01304E
:10063000F8007808F9070C2B73087702031D2A2BA2
:1006400072087602031D2A2B71087502031D2A2BDE
:1006500070087402031C3A2B7008F4027108031C22
:10066000710FF5027208031C720FF6027308031C67
:10067000730FF70201300310F30CF20CF10CF00CC5
:10068000FF3E031D3B2B0130F902031D1C2B770895
:10069000F3007608F2007508F1007408F000080015
:1006A0000030FC000030FB000030FA000030F900A0
:1006B00073087204710470040319A52BFD01FD0A6F
:1006C000F31B702B0130F8000310F00DF10DF20D4B
:1006D000F30DF80B642B0130F8007808FD07602B50
:1006E0000130F8000310F90DFA0DFB0DFC0DF80BAD
:1006F000722B73087702031D872B72087602031D85
:10070000872B71087502031D872B70087402031C68
:10071000982B7008F4027108031C710FF50272081F
:10072000031C720FF6027308031C730FF70279148F
:1007300001300310F30CF20CF10CF00CFF3E031D22
:10074000992B0130FD02031D702B7C08F3007B0800
:10075000F2007A08F1007908F00008008312031310
:10076000240884000130A502250883130007A60091
:100770002608840080012308220421042004031D8C
:10078000CE2B3030A600240884000130A5022508B5
:100790000007A700270884002608800023082204F9
:1007A0002104200403191A2C0030F3000030F20059
:1007B0000030F1000A30F0002308F7002208F600AC
:1007C0002108F5002008F4000A128A1104230A12F5
:1007D0008A117008303E83120313A6002408840097
:1007E0000130A502250883130007A700270884000D
:1007F000260880000030F3000030F2000030F100E5
:100800000A30F0002308F7002208F6002108F5005E
:100810002008F4000A128A1150230A128A11730860
:1008200083120313A3007208A2007108A1007008CC
:10083000A000CE2B2508A6002408840026088313D8
:1008400080070800F400F5010F308312031306053A
:10085000F0000F307006031D0800F70106080F397D
:10086000F038F000700886000030F0007708043E91
:10087000013E3C2C0310F00DFF3E031D3A2C0130CD
:10088000F1007708043E013E472C0310F10DFF3EB6
:10089000031D452C7108FF3A06057004F20072082A
:1008A000860006080F39F0007008F6000F30760653
:1008B000031D622C0130F0007008F7070430770246
:1008C000031C2E2C04307702031C732C9E2CF60183
:1008D000892CF601F60A892C02306F2C0330F000C7
:1008E0007008F600892C7608F000F1017108003AD2
:1008F00003197B2C892C7008073A03196E2C0C3ACB
:1009000003196C2C063A0319692C033A0319672C56
:10091000892C7608F00002300310F00DFF3E031D15
:100920008C2CA0307007F10077087107F200720874
:10093000840083130008F3007308F5007508F000C5
:1009400074088400700880000800F90083160313FF
:100950000908FE39F700770889000908FD39F70012
:10096000770889000808FE39F700770888008312A5
:1009700003130808FE39F70077088800831603136D
:100980000808FD39F7007708880083120313080868
:10099000FD39F70077088800831603130808FB3930
:1009A000F70077088800831203130808FB39F70063
:1009B00077088800831603130808F739F7007708CB
:1009C0008800831203130808F739F70077088800B6
:1009D0007908F7007708E9007903031D272D8316AE
:1009E00003130808EF39F700770888008312031310
:1009F0000808EF39F7007708880083160313080802
:100A0000DF39F70077088800831203130808DF39FD
:100A1000F70077088800831603130808BF39F7002A
:100A200077088800831203130808BF39F700770896
:100A300088008316031308087F39F70077088800B9
:100A40008312031308087F39F700770888003430D1
:100A5000F800F130F700F70B2B2DF80B2B2D302D74
:100A600030300A128A11AD200A128A110D30F800B6
:100A7000FB30F700F70B3A2DF80B3A2D3F2D3030B5
:100A80000A128A11AD200A128A110330F800973039
:100A9000F700F70B492DF80B492D4E2D30300A1277
:100AA0008A11AD200A128A11831203136903031DF0
:100AB0005B2D3830682D33300A128A11AD200A12AE
:100AC0008A1132300A128A11AD200A128A11283096
:100AD0000A128A11AD200A128A110C300A128A11E8
:100AE000AD200A128A1101300A128A11AD200A12B1
:100AF0008A110630F8003030F700F70B7D2DF80B27
:100B00007D2D00000800683083120313C2004208E4
:100B1000F00000300A128A1127210A128A1163306C
:100B2000831203136806031D292E0530A2008030AE
:100B3000A300A401A5010A128A115A220A128A11DD
:100B400083120313CD014730C2004208F300503036
:100B50000A128A1194210A128A1147300A128A1144
:100B600057200A128A11831203134D080319132EFA
:100B70000A128A11FB200A128A1111308312031300
:100B8000A2008030A300A401A5010A128A115A22F2
:100B90000A128A11213083120313A2008030A300AD
:100BA000A401A40AA5010A128A115A220A128A1162
:100BB000831203134D08C200C301C401C5014508D7
:100BC000AB004408AA004308A9004208A800AC01F1
:100BD000AC0A0C30C6004608AD000A128A112D225C
:100BE0000A128A111F3083120313C4007130C3002C
:100BF0001D30C200C20BFA2DC30BFA2DC40BFA2D07
:100C0000012E0A128A11FB200A128A110530831262
:100C10000313A2008030A300A401A5010A128A11C7
:100C20005A220A128A115C300A128A118B220A1285
:100C30008A11013083120313C2004208CD075C30D1
:100C40000A128A1111210A128A11013A031D582E23
:100C5000B32D0130A2008030A300A401A5010A1227
:100C60008A115A220A128A115C300A128A118B22C6
:100C70000A128A115C3083120313C2004208F40086
:100C800050300A128A1103220A128A116330831229
:100C90000313C2004208F00000300A128A11B72183
:100CA0000A128A115C300A128A1157200A128A111C
:100CB0000A128A11FB200A128A113630831203139A
:100CC000A2008030A300A4010430C2004208A500A5
:100CD0000A128A115A220A128A112E308312031321
:100CE000A2008030A300A401A40A0430C20042087C
:100CF000A5000A128A115A220800F4008312031375
:100D00006908031D392F7408F10004300310F10C39
:100D1000FF3E031D862E01307105F2000808FE39E2
:100D20007204F300730888007408F10005300310A2
:100D3000F10CFF3E031D972E71080139F2000130BE
:100D40000310F20DFF3E031DA02E0808FD397204AA
:100D5000F300730888007408F10006300310F10CEA
:100D6000FF3E031DAE2E71080139F2000230031060
:100D7000F20DFF3E031DB72E0808FB397204F30085
:100D8000730888007408F10007300310F10CFF3E6F
:100D9000031DC52E71080139F20003300310F20D56
:100DA000FF3E031DCE2E0808F7397204F3007308C6
:100DB00088000A128A119B200A128A114230F1001F
:100DC000F10BE02E000001307405F10083120313D3
:100DD0000808FE397104F200720888007408F100F6
:100DE0000310710C0139F20001300310F20DFF3EC7
:100DF000031DF52E0808FD397204F30073088800FE
:100E00007408F10002300310F10CFF3E031D032FA4
:100E100071080139F20002300310F20DFF3E031D8C
:100E20000C2F0808FB397204F3007308880074085B
:100E3000F10003300310F10CFF3E031D1A2F71085F
:100E40000139F20003300310F20DFF3E031D232F82
:100E50000808F7397204F300730888000A128A112F
:100E60009B200A128A114230F100F10B352F00004D
:100E7000080001307405F1000808FE397104F20021
:100E8000720888007408F1000310710C0139F20037
:100E900001300310F20DFF3E031D492F0808FD39F4
:100EA0007204F300730888007408F1000230031024
:100EB000F10CFF3E031D572F71080139F20002307B
:100EC0000310F20DFF3E031D602F0808FB3972046A
:100ED000F300730888007408F10003300310F10C6C
:100EE000FF3E031D6E2F71080139F200033003101D
:100EF000F20DFF3E031D772F0808F7397204F30047
:100F0000730888007408F10004300310F10CFF3EF0
:100F1000031D852F71080139F20004300310F20D12
:100F2000FF3E031D8E2F0808EF397204F30073088B
:100F300088007408F10005300310F10CFF3E031D1A
:100F40009C2F71080139F20005300310F20DFF3EAD
:100F5000031DA52F0808DF397204F3007308880009
:100F60007408F10006300310F10CFF3E031DB32F8F
:100F700071080139F20006300310F20DFF3E031D27
:100F8000BC2F0808BF397204F30073088800740886
:100F9000F10007300310F10CFF3E031DCA2F71084A
:100FA0000139F20007300310F20DFF3E031DD32F6D
:100FB00008087F397204F300730888000A128A1146
:100FC0009B2008008313B030FD000030FE007A3013
:100FD000FF00A03084000A128A118E200A128A11A2
:100FE0000A128A15FF270A128A11EA004E3084007D
:100FF00069300A128A114F2083010A128A1161286E
:021FFE000634A7
:02400E00723FFF
:00000001FF
