:020000040000FA
:060000000A128A1110280B
:10000800FE00030E83120313AC000408AD000A08B7
:10001800AE000A128A159F2C0A128A111328831718
:10002800CD30FD000B30FE001730FF00B8308400E3
:100038000A128A15CE220A128A118313DC30FD00B7
:100048000B30FE00E930FF00BE3084000A128A152A
:10005800CE220A128A11831790308400B8300A120F
:100068008A1587220A128A118313A0308400BE30B1
:100078000A128A1587220A128A114B3084005930D5
:100088000A128A15872283010A128A151F2DF70181
:10009800831203135408053EF0007008D40014308E
:1000A8005406031D0800D401F801F7017808F00090
:1000B80003300310F00DFF3E031D5D28A6307007C6
:1000C800F10077087107F2007208840083130008B2
:1000D800F3007808F40003300310F40DFF3E031D0D
:1000E8007028A5307407F50077087507F6007608BC
:1000F8008400730880000130F0007008F707770863
:1001080003195A287808F00002300310F00DFF3E5A
:10011800031D89280310700DA23E84000008F10019
:10012800840A0008F200710884008317721C831384
:100138000008F3007808F40002300310F40DFF3EC5
:10014800031DA1280310740DA43E84008313000A24
:10015800AF280310F30CFF3E031DAD2873080139C7
:10016800F5007808F60002300310F60DFF3E031D77
:10017800B8280310760DA63E84007508800078081C
:10018800F00002300310F00DFF3E031DC6280310D7
:10019800700DA73E84000008031DFF287808F000B2
:1001A80002300310F00DFF3E031DD5280310700D1B
:1001B800A53E84000008031DFF287808F0000230DF
:1001C8000310F00DFF3E031DE4280310700DA63E3A
:1001D80084000008031DFF287808F000023003108F
:1001E800F00DFF3E031DF3280310700DA73E840099
:1001F8008001800A93297808F00002300310F00D7E
:10020800FF3E031D02290310700DA73E8400000362
:10021800031D28297808F00002300310F00DFF3E76
:10022800031D11290310700DA63E84000008031D4C
:1002380028290230F0007808F10002300310F10D8F
:10024800FF3E031D222960297808F00002300310C0
:10025800F00DFF3E031D2B290310700DA73E8400EF
:1002680002300006031D67297808F00002300310E9
:10027800F00DFF3E031D3B290310700DA53E8400C1
:100288000003031D67297808F00002300310F00D01
:10029800FF3E031D4A290310700DA63E840000038B
:1002A800031D67290330F0007808F10002300310BD
:1002B800F10DFF3E031D5B290310710DA73E84005D
:1002C8007008800093297808F00002300310F00DC0
:1002D800FF3E031D6A290310700DA73E84000330FA
:1002E8000006031D93297808F00002300310F00D72
:1002F800FF3E031D7A290310700DA63E84000003FB
:10030800031D93297808F00002300310F00DFF3E1A
:10031800031D89290310700DA73E84008001013058
:10032800F0007008F807033078020318080059280D
:1003380083120313C7000A128A11A1220A128A1112
:100348000A3083120313B9003908AF0047080A12AC
:100358008A15DB220A128A11903E8400831700084E
:1003680083120313BA00840A0008BB003A08840009
:1003780083173B1C831380010A30B9003908B30086
:1003880047080A128A15F2240A128A1100308312C9
:100398000313B9000A30BA003A08AF0047080A1236
:1003A8008A15DB220A128A11983E84008317000AF4
:1003B80083120313E1290310B90DFF3E031DDF2942
:1003C8000A30BB003B08AF0047080A128A15DB2237
:1003D8000A128A11943E84008317000883120313BB
:1003E800BC00840A0008BD003C08840083173D1C3B
:1003F80083130008BE000130BF000A30C000400867
:10040800AF0047080A128A15DB220A128A11983EA1
:1004180084008317000A83120313142A0310BF0DE4
:10042800FF3E031D122A3F08FF3A3E053904C1006A
:100438000A30C2004208AF0047080A128A15DB22B8
:100448000A128A11943E840083170008831203134A
:10045800C300840A0008C400430884008317441CAE
:100468008313410880000030B9000A30BA003A0806
:10047800AF0047080A128A15DB220A128A11983E31
:1004880084008317000A831203134C2A0310B90D42
:10049800FF3E031D4A2A0A30BB003B08AF0047084D
:1004A8000A128A15DB220A128A11963E84008317E3
:1004B800000883120313BC00840A0008BD003C082E
:1004C800840083173D1C83130008BE000130BF0061
:1004D8000A30C0004008AF0047080A128A15DB221C
:1004E8000A128A11983E84008317000A83120313A4
:1004F8007F2A0310BF0DFF3E031D7D2A3F08FF3AE8
:100508003E053904C1000A30C2004208AF0047085E
:100518000A128A15DB22963E84008317000883128C
:100528000313C300840A0008C40043088400831727
:10053800441C831341088000080010308400D23026
:1005480083120313AF000408B0000A30B1002F086B
:10055800840083130008B200AF0A300884008317B0
:1005680032088000B00AB10BAB2A903084001030FA
:10057800AF000408B0000A30B1002F0884008317C8
:100588000008B200AF0A3008840032088000B00AC0
:10059800B10BC12A1A308400C830AF000408B0007B
:1005A8000A30B1002F08840083130008B200AF0A94
:1005B80030088400831732088000B00AB10BD62AAD
:1005C8000A30903E84001A30AF000408B0000A30A8
:1005D800B1002F08840083170008B200AF0A300862
:1005E800840032088000B00AB10BED2A2430840060
:1005F800BE30AF000408B0000A30B1002F088400F4
:1006080083130008B200AF0A300884008317320849
:100618008000B00AB10B022B1430903E84002430C5
:10062800AF000408B0000A30B1002F088400831717
:100638000008B200AF0A3008840032088000B00A0F
:10064800B10B192B2E308400C330AF000408B00062
:100658000A30B1002F08840083170008B200AF0ADF
:100668003008840032088000B00AB10B2E2B1E30EF
:10067800903E84002E30AF000408B0000A30B1006C
:100688002F08840083170008B200AF0A30088400DE
:1006980032088000B00AB10B442B08000A30F00081
:1006A8000030F100831203135708A000A1012008AD
:1006B800F2002108F3000A128A1556260A128A1136
:1006C800700883120313A2002208F90002300A12EC
:1006D8008A15B9220A128A110A30F0000030F10096
:1006E800831203135708A000A1012008F200210873
:1006F800F3000A128A15ED260A128A11700883126D
:100708000313A2002208F90003300A128A15B9223D
:100718000A128A1100300A128A1567220A128A11EF
:10072800F430831603133806031DF42B3903031D15
:10073800F42BB801B90100300A128A159A220A125C
:100748008A110A3A031DDE2B0A30F0000030F1004E
:10075800831203135608A000A1012008F200210803
:10076800F3000A128A1556260A128A117008831293
:100778000313A2002208F90000300A128A15B922D0
:100788000A128A110A30F0000030F10083120313B4
:100798005608A000A1012008F2002108F3000A125F
:1007A8008A15ED260A128A11700883120313A20013
:1007B8002208EF2B0A3083120313A0002008F90047
:1007C80000300A128A15B9220A128A110A308312D5
:1007D8000313A0002008F90001300A128A15B92273
:1007E80083160313BA01BB0108000A30F000003079
:1007F800F100831203135608A000A1012008F2009B
:100808002108F3000A128A1556260A128A1170085E
:1008180083120313A2002208F90000300A128A1575
:10082800B9220A128A110A30F0000030F10083124E
:1008380003135608A000A1012008F2002108F300C4
:100848000A128A15ED260A128A11700883120313F8
:10085800A2002208F90001300A128A15B9220A12E8
:100868008A1100300A128A1567220A128A11F43096
:10087800831603133806031D9B2C3903031D9B2C79
:10088800B801B90102300A128A159A220A128A118D
:100898000A3A031D852C0A30F0000030F10083125B
:1008A80003135708A000A1012008F2002108F30053
:1008B8000A128A1556260A128A117008831203131F
:1008C800A2002208F90002300A128A15B9220A1277
:1008D8008A110A30F0000030F10083120313570820
:1008E800A000A1012008F2002108F3000A128A15CD
:1008F800ED260A128A11700883120313A200220837
:10090800962C0A3083120313A0002008F900023045
:100918000A128A15B9220A128A110A30831203139D
:10092800A0002008F90003300A128A15B92283169C
:100938000313BA01BB01080055300A128A15442373
:100948000A128A1100300A128A119C210A128A118D
:1009580001300A128A119C210A128A1102300A12E5
:100968008A119C210A128A1103300A128A119C21C9
:100978000A128A110A3083120313AF000030B00044
:100988005608C800C9014808B1004908B2000A124F
:100998008A11B1270A128A11831203132F08CA0079
:1009A8004A08B80000300A128A1502230A128A116E
:1009B8000A3083120313AF000030B0005608C80095
:1009C800C9014808B1004908B2000A128A15462729
:1009D8000A128A11831203132F08CA004A08B800A2
:1009E80001300A128A1502230A128A110A30831268
:1009F8000313AF000030B0005708C800C901480809
:100A0800B1004908B2000A128A11B1270A128A11E4
:100A1800831203132F08CA004A08B80002300A12CA
:100A28008A1502230A128A110A3083120313AF00AF
:100A38000030B0005708C800C9014808B10049088B
:100A4800B2000A128A1546270A128A118312031362
:100A58002F08CA004A08B80003300A128A15022370
:100A68000A128A1100300A128A15772208000A3001
:100A7800F0000030F100831203135608A000A10112
:100A88002008F2002108F3000A128A1556260A12D5
:100A98008A11700883120313A2002208F90000309B
:100AA8000A128A15B9220A128A110A30F000003097
:100AB800F100831203135608A000A1012008F200D8
:100AC8002108F3000A128A15ED260A128A11700805
:100AD80083120313A2002208F90001300A128A15B2
:100AE800B9220A128A110A30F0000030F10083128C
:100AF80003135708A000A1012008F2002108F30001
:100B08000A128A1556260A128A11700883120313CC
:100B1800A2002208F90002300A128A15B9220A1224
:100B28008A110A30F0000030F100831203135708CD
:100B3800A000A1012008F2002108F3000A128A157A
:100B4800ED260A128A11700883120313A2002208E4
:100B5800F90003300A128A15B9220A128A11E830FC
:100B6800831603133A06033003193B06031DCC2DE5
:100B7800BA01BB010A128A155C220A128A11003ACC
:100B8800031DC82D0130C92D00300A128A156722AD
:100B980083160313B801B901080083120313BD00BB
:100BA8000A128A1551240A128A110130831203137A
:100BB800B0003D08B10002300310B10DFF3E031D27
:100BC800E02D0310310DA43E84008313000AEE2D9E
:100BD8000310B00DFF3E031DEC2D3D08B20002309E
:100BE8000310B20DFF3E031DF42D0310320DA03E7D
:100BF80084000008B300840A0008B40033088400A5
:100C08008317341C83130008B5000130B6003D0873
:100C1800B70002300310B70DFF3E031D0E2E031060
:100C2800370DA43E84008313000A1C2E0310B60D52
:100C3800FF3E031D1A2E3608FF3A35053004B8006A
:100C48003D08B90002300310B90DFF3E031D272EE1
:100C58000310390DA03E84000008BA00840A000879
:100C6800BB003A08840083173B1C831338088000B4
:100C7800BC013D08B00003300310B00DFF3E031D5A
:100C8800402EA5303007B1003C083107B2003208C9
:100C9800840083138001800A0130B0003008BC074B
:100CA80002303C02031C3D2E3D08B0000230031008
:100CB800B00DFF3E031D5B2E0310300DA73E8400D0
:100CC80080010800831203134F08053EFA007A08D2
:100CD800CF00831603133C08053EBC003D080318EB
:100CE800013E003EBD001430831203134F06031D5E
:100CF8000800CF01FC01FC01BF2E00300A128A1542
:100D0800EE220A128A11013A031DB72E8312031329
:100D180050080319B72E0A128A158F250A128A114C
:100D2800B72E01300A128A15EE220A128A11013AE8
:100D3800031DB72E8312031350080319B72E0A1286
:100D48008A1577240A128A11B72E02300A128A15D8
:100D5800EE220A128A11013A031DB72E0A128A15C9
:100D68002B240A128A110130FA007A08FC07033092
:100D78007C020318D32E7C08FA00FB017B08003A9A
:100D88000319C72EB72E7A08003A0319812E013AA3
:100D98000319952E033A0319A92EB72EB72E0A1256
:100DA8008A1552250800F400013083120313A000AD
:100DB8000A30A1002108F00074080A128A15A82236
:100DC8000A128A11983E84008317000A83120313BB
:100DD800EF2E0310A00DFF3E031DED2E0A30A200DA
:100DE8002208F00074080A128A15A8220A128A1129
:100DF800963E84008317000883120313A300840A15
:100E08000008A400230884008317241C8313000807
:100E1800A5000130A6000A30A7002708F0007408D2
:100E28000A128A15A8220A128A11983E840083178A
:100E3800000A83120313222F0310A60DFF3E031D81
:100E4800202F2608FF3A25052004A8000A30A9000B
:100E58002908F00074080A128A15A822963E840010
:100E68008317000883120313AA00840A0008AB0042
:100E78002A08840083172B1C831328088000080085
:100E8800F400003083120313A0000A30A1002108E7
:100E9800F00074080A128A15A8220A128A11983ECC
:100EA80084008317000A831203135C2F0310A00D1C
:100EB800FF3E031D5A2F0A30A2002208F0007408D2
:100EC8000A128A15A8220A128A11963E84008317EC
:100ED800000883120313A300840A0008A40023084F
:100EE80084008317241C83130008A5000130A60082
:100EF8000A30A7002708F00074080A128A15A822E9
:100F08000A128A11983E84008317000A8312031379
:100F18008F2F0310A60DFF3E031D8D2F2608FF3AC5
:100F280025052004A8000A30A9002908F000740843
:100F38000A128A15A822963E840083170008831295
:100F48000313AA00840A0008AB002A088400831748
:100F58002B1C831328088000080083120313B50193
:100F6800B21FBD2FB109B209B10A0319B20AB501FE
:100F7800B50AB01FC42FAF09B009AF0A0319B00AE8
:100F88002F0830040319F12FB401B40AB01BD82F6D
:100F980001300310AF0DB00DFF3E031DCD2F013002
:100FA800B3003308B407CA2F30083202031DDE2FFE
:100FB8002F083102031CE62F2F08B1023008031C4A
:100FC800B203B20201300310B00CAF0CFF3E031D98
:100FD800E72F0130B402031DD82F35080319F92F64
:100FE800B109B209B10A0319B20A3208B0003108CE
:040FF800AF0008003E
:1014B800831203135208080083120313CB01CC01D3
:1014C800CD01D0010800F1007108F0007008831206
:1014D8000313D2000800F1007108F00070088312AD
:1014E80003138100080083120313B0003008AF0013
:1014F8002F08D200080083120313B0003008AF0091
:101508002F088100080064008001840A040603197A
:1015180000340406882AF100831203135008F000EF
:10152800710884007008831380000800F5000A30F1
:10153800F4007408F00075080A128A15A822993E6A
:101548008400831700080800F200F301721CB02A17
:101558007008F1007108F3070310F00D0310F20C86
:101568007208031DAA2A73080800FC007908FA000B
:101578000A30FB007B08F0007C080A128A15A822B2
:10158800993E84007A088317800008007E088A0044
:101598007F088200CA220A128A158000840A040879
:1015A8007D0603190034FF0A0319FE0ACE2A8312A6
:1015B8000313B200B101321CE52A2F08B00030082D
:1015C800B1070310AF0D0310B20C3208031DDF2A58
:1015D80031080800F2007208F00002300310F00D24
:1015E800FF3E031DF22A0310700DA73E84008313EB
:1015F8000008F1007108F300730808008312031350
:10160800BB003808B9000A30BA003A08AF003B08F6
:101618000A128A15DB22993E8400831203133908C3
:101628008317800008003F3406345B344F34663437
:101638006D347D3407347F346F340034883400349B
:1016480008340034863400340634003407340A344D
:10165800F100831203134B08F0007108840070082E
:10166800831380004C08F000710A84007008800021
:101678004D08F0007108023E8400700880000800E0
:1016880083120313B0004B08AF00300884002F0802
:10169800831380004C08AF00300A84002F088000B4
:1016A8004D08AF003008023E84002F088000080073
:1016B80083120313B100652B8B178B1608008B124E
:1016C80008003108AF00B0013008003A03196D2B4B
:1016D800752B2F08003A0319602B013A0319632B65
:1016E800752B0800F2007208F00007300310F00DA7
:1016F800FF3E031D7A2B83160317260884008317E1
:10170800271C831300087F397004F1002608840021
:101718008317271C831371088000080083120313A2
:10172800B1009E2B8316031381160800831603133A
:10173800811208003108AF00B0013008003A0319DF
:10174800A62BAE2B2F08003A0319962B013A031942
:101758009A2BAE2B080083120313B100BB2B831600
:101768000313811208008316031381160800310839
:10177800AF00B0013008003A0319C32BCB2B2F0858
:10178800003A0319B32B013A0319B72BCB2B0800E6
:1017980083120313B100D82B831603138112080098
:1017A80083160313811608003108AF00B001300812
:1017B800003A0319E02BE82B2F08003A0319D02B25
:1017C800013A0319D42BE82B080088340034083474
:1017D8000034863400340634003406340A3488343D
:1017E80000340834003486340034063400340534B8
:1017F8000A3488340034083400348634003406341B
:10180800003404340A3483120313B1003108AF00E2
:1018180007300310AF0DFF3E031D0D2C8316031771
:10182800260884008317271C831300087F39831236
:1018380003132F04B00083160317260884008317A8
:10184800271C8313831203133008800008003B2CE5
:101858000230F0007008D0000800D001D00A08005B
:10186800D001CB0183160313BC01BD01080083120C
:1018780003135008F000F1017108003A0319452CD0
:10188800502C7008003A03192C2C013A0319342CF7
:10189800033A0319312C502C080000308316031327
:1018A800A1008630A0000030A3000630A200A401E9
:1018B8000030A9008630A8000030AB000630AA002E
:1018C800AC01AC0A0030B1008630B0000030B30083
:1018D8000630B200023083120313AF002F088316BC
:1018E8000313B40008008C2C0130CD024D0A031DEF
:1018F80008001730F0007008CD0008000130CC0255
:101908004C0A031D08003B30F0007008CC000800AA
:10191800831203135008F000F1017108003A03190B
:10192800962C9E2C7008013A0319822C033A03194D
:10193800782C9E2C08000B1DBC2C0B11D8300A12D9
:101948008A156F220A128A150A128A15A1260A1206
:101958008A150A128A114B200A128A150A128A114C
:1019680066260A128A150A128A150C260A128A1580
:10197800831203132E088A002D0884002C0E83007E
:10198800FE0E7E0E0900F9007408B83E8400831725
:101998000008F5000A30F6007608F00079080A1207
:1019A8008A15A8220A128A15923E84008317000815
:1019B800F700840A0008F800770884008317781C69
:1019C80083137508800002307906031D080083120E
:1019D800031352080A128A15762308008312031388
:1019E800B8003308B83E840083170008B4000A30F2
:1019F800B5003508AF0038080A128A15DB220A122A
:101A08008A15923E84008317000883120313B600D8
:101A1800840A0008B700360884008317371C83132C
:101A28003408800002303806031D080052080A12E4
:101A38008A15072408000A128A1560220A128A15D4
:101A48000A128A11A0240A128A1500300A128A1171
:101A5800D1250A128A1501300A128A11D1250A12D3
:101A68008A1502300A128A11D1250A128A158312A0
:101A78000313B201B30107300A128A15CD250A12E1
:101A88008A15D8300A128A157F220A128A15003060
:101A98000A128A15AF230A128A15512D83120313CD
:101AA8005008031D08000330831603133D02E83075
:101AB80003193C02031C0800BC01BD010130F700FA
:101AC800770883120313CB073C304B06031D08002D
:101AD800CB010130F7007708CC073C304C06031DDA
:101AE8007A2DCC010130F7007708CD071830F000C7
:101AF8000030F1004D08F700F8017708F200780887
:101B0800F3000A128A1556267008F900790883121C
:101B18000313CD000800BA2D1830F0000030F10092
:101B28004D08013EF200003003180130F3000A129C
:101B38008A1556267008F700770883120313CD001C
:101B480008003C30F0000030F1004C08013EF20083
:101B5800003003180130F3000A128A15562670085F
:101B6800F700770883120313CC00080083120313CD
:101B78005008F700F8017808003A0319C42DCC2D55
:101B88007708013A0319A52D033A0319902DCC2D96
:101B9800080083120313B60036080A128A15A12713
:101BA8000A128A158312031332080A128A15CC23E3
:101BB8000A128A158312031333080A128A155C2342
:101BC8000A128A15F52D01300A128A15AF230A1256
:101BD8008A15072E01300A128A1592230A128A15CD
:101BE800072E831203133208B400B5013508003AF2
:101BF8000319FF2D072E3408003A0319E72D013A7F
:101C08000319EE2D072EFF300A128A157F220800CD
:101C1800053083120313A3002308CE07053083166B
:101C28000313BA070318BB0A0030BB070530B8070F
:101C38000318B90A0030B9071430831203134E028F
:101C4800031C0800CE0155300A128A152C230A12EB
:101C58008A1558300A128A158F220A128A15402EC0
:101C68000A128A113B2508000A128A11F923080072
:101C78000A128A1152230800831203135808A3007A
:101C8800A4012408003A03194A2E552E2308003AC5
:101C98000319342E013A03193C2E033A0319382E3E
:101CA800552E0800F601F31F602EF209F309F20A17
:101CB8000319F30AF601F60AF11F672EF009F10974
:101CC800F00A0319F10A700871040319942EF5013A
:101CD800F50AF11B7B2E01300310F00DF10DFF3ECC
:101CE800031D702E0130F4007408F5076D2E71087D
:101CF8007302031D812E70087202031C892E70085E
:101D0800F2027108031CF303F30201300310F10C13
:101D1800F00CFF3E031D8A2E0130F502031D7B2EB9
:101D2800760803199C2EF209F309F20A0319F30A3B
:101D38007308F1007208F00008000530FA007A080C
:101D480083120313D10705305106031D0800D10182
:101D5800FD01FD017D080A128A1144270A128A151D
:101D68000130FA007A08FD0704307D02031CAE2E0C
:101D78000A30FA007A08F0008312031353080A1293
:101D88008A15A8220A128A15993E8400831700082A
:101D9800FB007B08FC007C08FA007A08F400831238
:101DA800031353080A128A15C7240A128A158312C4
:101DB800031353080A128A11D7260130FA007A0849
:101DC80083120313D30753080339FA007A08D300A0
:101DD8000800F601F11FF72EF009F109F00A0319BE
:101DE800F10AF601F60AF31F022FF209F309F20AC3
:101DF8000319F30A0130F4007408F606F701F80134
:101E0800700871040319392FF501F50AF11B182F11
:101E180001300310F00DF10DFF3E031D0D2F0130B1
:101E2800F4007408F5070A2F01300310F70DF80DB8
:101E3800FF3E031D192F71087302031D252F70081B
:101E48007202031C2E2F7008F2027108031CF303A0
:101E5800F302771401300310F10CF00CFF3E031D60
:101E68002F2F0130F502031D182F76080319412F73
:101E7800F709F809F70A0319F80A7808F10077084A
:101E8800F000080083120313B501B01F522FAF09E9
:101E9800B009AF0A0319B00AB501B50AB21F5D2F20
:101EA800B109B209B10A0319B20A0130B300330803
:101EB800B506B601B7012F0830040319942FB401F1
:101EC800B40AB01B732F01300310AF0DB00DFF3EE5
:101ED800031D682F0130B3003308B407652F0130A4
:101EE8000310B60DB70DFF3E031D742F30083202E4
:101EF800031D802F2F083102031C892F2F08B102E0
:101F08003008031CB203B202361401300310B00CBF
:101F1800AF0CFF3E031D8A2F0130B402031D732F3F
:101F2800350803199C2FB609B709B60A0319B70A69
:101F38003708B0003608AF00080083120313B10059
:101F4800DD2F831603138111011081100111080080
:101F580083160313811101148110011108008316DF
:101F68000313811101108114011108008316031352
:101F780081110114811401110800831603138111C2
:101F88000110811001150800831603138111011433
:101F980081100115080083160313811101108114A3
:101FA800011508008316031381110114811401150A
:101FB80008003108AF00B0013008003A0319E52FD6
:101FC800FF2F2F08003A0319A52F013A0319AC2F48
:101FD800033A0319B32F013A0319BA2F073A031921
:101FE800C12F013A0319C82F033A0319CF2F013A19
:081FF8000319D62FFF2F08008A
:02400E00723FFF
:00000001FF
